{
  "_format": "hh-sol-artifact-1",
  "contractName": "RandomIpfsNft",
  "sourceName": "contracts/RandomIpfsNft.sol",
  "abi": [
    {
      "inputs": [
        {
          "internalType": "address",
          "name": "vrfCoordinatorV2",
          "type": "address"
        },
        {
          "internalType": "bytes32",
          "name": "gasLane",
          "type": "bytes32"
        },
        {
          "internalType": "uint64",
          "name": "subscriptionId",
          "type": "uint64"
        },
        {
          "internalType": "uint32",
          "name": "callBackGasLimit",
          "type": "uint32"
        },
        {
          "internalType": "string[3]",
          "name": "dogTokenUris",
          "type": "string[3]"
        }
      ],
      "stateMutability": "nonpayable",
      "type": "constructor"
    },
    {
      "inputs": [
        {
          "internalType": "address",
          "name": "have",
          "type": "address"
        },
        {
          "internalType": "address",
          "name": "want",
          "type": "address"
        }
      ],
      "name": "OnlyCoordinatorCanFulfill",
      "type": "error"
    },
    {
      "anonymous": false,
      "inputs": [
        {
          "indexed": true,
          "internalType": "address",
          "name": "owner",
          "type": "address"
        },
        {
          "indexed": true,
          "internalType": "address",
          "name": "approved",
          "type": "address"
        },
        {
          "indexed": true,
          "internalType": "uint256",
          "name": "tokenId",
          "type": "uint256"
        }
      ],
      "name": "Approval",
      "type": "event"
    },
    {
      "anonymous": false,
      "inputs": [
        {
          "indexed": true,
          "internalType": "address",
          "name": "owner",
          "type": "address"
        },
        {
          "indexed": true,
          "internalType": "address",
          "name": "operator",
          "type": "address"
        },
        {
          "indexed": false,
          "internalType": "bool",
          "name": "approved",
          "type": "bool"
        }
      ],
      "name": "ApprovalForAll",
      "type": "event"
    },
    {
      "anonymous": false,
      "inputs": [
        {
          "indexed": true,
          "internalType": "address",
          "name": "from",
          "type": "address"
        },
        {
          "indexed": true,
          "internalType": "address",
          "name": "to",
          "type": "address"
        },
        {
          "indexed": true,
          "internalType": "uint256",
          "name": "tokenId",
          "type": "uint256"
        }
      ],
      "name": "Transfer",
      "type": "event"
    },
    {
      "inputs": [],
      "name": "MAX_CHANCE_VALUE",
      "outputs": [
        {
          "internalType": "uint256",
          "name": "",
          "type": "uint256"
        }
      ],
      "stateMutability": "view",
      "type": "function"
    },
    {
      "inputs": [],
      "name": "NUM_WORDS",
      "outputs": [
        {
          "internalType": "uint32",
          "name": "",
          "type": "uint32"
        }
      ],
      "stateMutability": "view",
      "type": "function"
    },
    {
      "inputs": [],
      "name": "REQUEST_CONFIRMATIONS",
      "outputs": [
        {
          "internalType": "uint16",
          "name": "",
          "type": "uint16"
        }
      ],
      "stateMutability": "view",
      "type": "function"
    },
    {
      "inputs": [
        {
          "internalType": "address",
          "name": "to",
          "type": "address"
        },
        {
          "internalType": "uint256",
          "name": "tokenId",
          "type": "uint256"
        }
      ],
      "name": "approve",
      "outputs": [],
      "stateMutability": "nonpayable",
      "type": "function"
    },
    {
      "inputs": [
        {
          "internalType": "address",
          "name": "owner",
          "type": "address"
        }
      ],
      "name": "balanceOf",
      "outputs": [
        {
          "internalType": "uint256",
          "name": "",
          "type": "uint256"
        }
      ],
      "stateMutability": "view",
      "type": "function"
    },
    {
      "inputs": [
        {
          "internalType": "uint256",
          "name": "tokenId",
          "type": "uint256"
        }
      ],
      "name": "getApproved",
      "outputs": [
        {
          "internalType": "address",
          "name": "",
          "type": "address"
        }
      ],
      "stateMutability": "view",
      "type": "function"
    },
    {
      "inputs": [],
      "name": "getChanceArray",
      "outputs": [
        {
          "internalType": "uint256[3]",
          "name": "",
          "type": "uint256[3]"
        }
      ],
      "stateMutability": "pure",
      "type": "function"
    },
    {
      "inputs": [],
      "name": "i_callBackGasLimit",
      "outputs": [
        {
          "internalType": "uint32",
          "name": "",
          "type": "uint32"
        }
      ],
      "stateMutability": "view",
      "type": "function"
    },
    {
      "inputs": [],
      "name": "i_gasLane",
      "outputs": [
        {
          "internalType": "bytes32",
          "name": "",
          "type": "bytes32"
        }
      ],
      "stateMutability": "view",
      "type": "function"
    },
    {
      "inputs": [],
      "name": "i_subscriptionId",
      "outputs": [
        {
          "internalType": "uint64",
          "name": "",
          "type": "uint64"
        }
      ],
      "stateMutability": "view",
      "type": "function"
    },
    {
      "inputs": [
        {
          "internalType": "address",
          "name": "owner",
          "type": "address"
        },
        {
          "internalType": "address",
          "name": "operator",
          "type": "address"
        }
      ],
      "name": "isApprovedForAll",
      "outputs": [
        {
          "internalType": "bool",
          "name": "",
          "type": "bool"
        }
      ],
      "stateMutability": "view",
      "type": "function"
    },
    {
      "inputs": [],
      "name": "name",
      "outputs": [
        {
          "internalType": "string",
          "name": "",
          "type": "string"
        }
      ],
      "stateMutability": "view",
      "type": "function"
    },
    {
      "inputs": [
        {
          "internalType": "uint256",
          "name": "tokenId",
          "type": "uint256"
        }
      ],
      "name": "ownerOf",
      "outputs": [
        {
          "internalType": "address",
          "name": "",
          "type": "address"
        }
      ],
      "stateMutability": "view",
      "type": "function"
    },
    {
      "inputs": [
        {
          "internalType": "uint256",
          "name": "requestId",
          "type": "uint256"
        },
        {
          "internalType": "uint256[]",
          "name": "randomWords",
          "type": "uint256[]"
        }
      ],
      "name": "rawFulfillRandomWords",
      "outputs": [],
      "stateMutability": "nonpayable",
      "type": "function"
    },
    {
      "inputs": [],
      "name": "requestDoggie",
      "outputs": [
        {
          "internalType": "uint256",
          "name": "requestId",
          "type": "uint256"
        }
      ],
      "stateMutability": "nonpayable",
      "type": "function"
    },
    {
      "inputs": [
        {
          "internalType": "uint256",
          "name": "",
          "type": "uint256"
        }
      ],
      "name": "s_dogTokenURIs",
      "outputs": [
        {
          "internalType": "string",
          "name": "",
          "type": "string"
        }
      ],
      "stateMutability": "view",
      "type": "function"
    },
    {
      "inputs": [
        {
          "internalType": "uint256",
          "name": "",
          "type": "uint256"
        }
      ],
      "name": "s_requestIdToSender",
      "outputs": [
        {
          "internalType": "address",
          "name": "",
          "type": "address"
        }
      ],
      "stateMutability": "view",
      "type": "function"
    },
    {
      "inputs": [
        {
          "internalType": "address",
          "name": "from",
          "type": "address"
        },
        {
          "internalType": "address",
          "name": "to",
          "type": "address"
        },
        {
          "internalType": "uint256",
          "name": "tokenId",
          "type": "uint256"
        }
      ],
      "name": "safeTransferFrom",
      "outputs": [],
      "stateMutability": "nonpayable",
      "type": "function"
    },
    {
      "inputs": [
        {
          "internalType": "address",
          "name": "from",
          "type": "address"
        },
        {
          "internalType": "address",
          "name": "to",
          "type": "address"
        },
        {
          "internalType": "uint256",
          "name": "tokenId",
          "type": "uint256"
        },
        {
          "internalType": "bytes",
          "name": "_data",
          "type": "bytes"
        }
      ],
      "name": "safeTransferFrom",
      "outputs": [],
      "stateMutability": "nonpayable",
      "type": "function"
    },
    {
      "inputs": [
        {
          "internalType": "address",
          "name": "operator",
          "type": "address"
        },
        {
          "internalType": "bool",
          "name": "approved",
          "type": "bool"
        }
      ],
      "name": "setApprovalForAll",
      "outputs": [],
      "stateMutability": "nonpayable",
      "type": "function"
    },
    {
      "inputs": [
        {
          "internalType": "bytes4",
          "name": "interfaceId",
          "type": "bytes4"
        }
      ],
      "name": "supportsInterface",
      "outputs": [
        {
          "internalType": "bool",
          "name": "",
          "type": "bool"
        }
      ],
      "stateMutability": "view",
      "type": "function"
    },
    {
      "inputs": [],
      "name": "symbol",
      "outputs": [
        {
          "internalType": "string",
          "name": "",
          "type": "string"
        }
      ],
      "stateMutability": "view",
      "type": "function"
    },
    {
      "inputs": [
        {
          "internalType": "uint256",
          "name": "tokenId",
          "type": "uint256"
        }
      ],
      "name": "tokenURI",
      "outputs": [
        {
          "internalType": "string",
          "name": "",
          "type": "string"
        }
      ],
      "stateMutability": "view",
      "type": "function"
    },
    {
      "inputs": [
        {
          "internalType": "address",
          "name": "from",
          "type": "address"
        },
        {
          "internalType": "address",
          "name": "to",
          "type": "address"
        },
        {
          "internalType": "uint256",
          "name": "tokenId",
          "type": "uint256"
        }
      ],
      "name": "transferFrom",
      "outputs": [],
      "stateMutability": "nonpayable",
      "type": "function"
    }
  ],
  "bytecode": "0x6101206040523480156200001257600080fd5b5060405162003e3438038062003e348339818101604052810190620000389190620004c3565b846040518060400160405280601481526020017f4d6172696e6127732052616e736f6d20495046530000000000000000000000008152506040518060400160405280600381526020017f52494e00000000000000000000000000000000000000000000000000000000008152508160009080519060200190620000bd929190620001ae565b508060019080519060200190620000d6929190620001ae565b5050508073ffffffffffffffffffffffffffffffffffffffff1660808173ffffffffffffffffffffffffffffffffffffffff1660601b81525050508473ffffffffffffffffffffffffffffffffffffffff1660a08173ffffffffffffffffffffffffffffffffffffffff1660601b815250508360c081815250508267ffffffffffffffff1660e08167ffffffffffffffff1660c01b815250508163ffffffff166101008163ffffffff1660e01b815250506000600b81905550806008906003620001a29291906200023f565b505050505050620007e6565b828054620001bc906200068a565b90600052602060002090601f016020900481019282620001e057600085556200022c565b82601f10620001fb57805160ff19168380011785556200022c565b828001600101855582156200022c579182015b828111156200022b5782518255916020019190600101906200020e565b5b5090506200023b919062000299565b5090565b826003810192821562000286579160200282015b828111156200028557825182908051906020019062000274929190620001ae565b509160200191906001019062000253565b5b509050620002959190620002b8565b5090565b5b80821115620002b45760008160009055506001016200029a565b5090565b5b80821115620002dc5760008181620002d29190620002e0565b50600101620002b9565b5090565b508054620002ee906200068a565b6000825580601f1062000302575062000323565b601f01602090049060005260206000209081019062000322919062000299565b5b50565b60006200033d620003378462000593565b6200056a565b905080828560208602820111156200035a576200035962000759565b5b60005b85811015620003af57815167ffffffffffffffff81111562000384576200038362000754565b5b80860162000393898262000462565b855260208501945060208401935050506001810190506200035d565b5050509392505050565b6000620003d0620003ca84620005bc565b6200056a565b905082815260208101848484011115620003ef57620003ee6200075e565b5b620003fc84828562000654565b509392505050565b60008151905062000415816200077e565b92915050565b600082601f83011262000433576200043262000754565b5b60036200044284828562000326565b91505092915050565b6000815190506200045c8162000798565b92915050565b600082601f8301126200047a576200047962000754565b5b81516200048c848260208601620003b9565b91505092915050565b600081519050620004a681620007b2565b92915050565b600081519050620004bd81620007cc565b92915050565b600080600080600060a08688031215620004e257620004e162000768565b5b6000620004f28882890162000404565b955050602062000505888289016200044b565b94505060406200051888828901620004ac565b93505060606200052b8882890162000495565b925050608086015167ffffffffffffffff8111156200054f576200054e62000763565b5b6200055d888289016200041b565b9150509295509295909350565b60006200057662000589565b9050620005848282620006c0565b919050565b6000604051905090565b600067ffffffffffffffff821115620005b157620005b062000725565b5b602082029050919050565b600067ffffffffffffffff821115620005da57620005d962000725565b5b620005e5826200076d565b9050602081019050919050565b6000620005ff8262000610565b9050919050565b6000819050919050565b600073ffffffffffffffffffffffffffffffffffffffff82169050919050565b600063ffffffff82169050919050565b600067ffffffffffffffff82169050919050565b60005b838110156200067457808201518184015260208101905062000657565b8381111562000684576000848401525b50505050565b60006002820490506001821680620006a357607f821691505b60208210811415620006ba57620006b9620006f6565b5b50919050565b620006cb826200076d565b810181811067ffffffffffffffff82111715620006ed57620006ec62000725565b5b80604052505050565b7f4e487b7100000000000000000000000000000000000000000000000000000000600052602260045260246000fd5b7f4e487b7100000000000000000000000000000000000000000000000000000000600052604160045260246000fd5b600080fd5b600080fd5b600080fd5b600080fd5b600080fd5b6000601f19601f8301169050919050565b6200078981620005f2565b81146200079557600080fd5b50565b620007a38162000606565b8114620007af57600080fd5b50565b620007bd8162000630565b8114620007c957600080fd5b50565b620007d78162000640565b8114620007e357600080fd5b50565b60805160601c60a05160601c60c05160e05160c01c6101005160e01c6135e162000853600039600081816108460152610af50152600081816108230152610b390152600081816108020152610cfc015260006107c6015260008181610932015261098601526135e16000f3fe608060405234801561001057600080fd5b50600436106101585760003560e01c80636352211e116100c3578063a22cb4651161007c578063a22cb465146103cb578063a36f573b146103e7578063b88d4fde14610417578063c87b56dd14610433578063da1b9e2914610463578063e985e9c51461048157610158565b80636352211e146102f357806367f082b01461032357806370a082311461034157806372cf6e34146103715780638e879c8a1461038f57806395d89b41146103ad57610158565b806320faa0251161011557806320faa0251461023157806323b872dd1461026157806340f1e7631461027d57806342842e0e1461029b578063470cdf97146102b75780635dacf5f4146102d557610158565b806301ffc9a71461015d57806306fdde031461018d578063081812fc146101ab578063095ea7b3146101db5780631801cc8a146101f75780631fe543e314610215575b600080fd5b61017760048036038101906101729190612390565b6104b1565b6040516101849190612929565b60405180910390f35b610195610593565b6040516101a291906129b2565b60405180910390f35b6101c560048036038101906101c091906123ea565b610625565b6040516101d2919061287e565b60405180910390f35b6101f560048036038101906101f09190612350565b6106aa565b005b6101ff6107c2565b60405161020c9190612bef565b60405180910390f35b61022f600480360381019061022a9190612444565b610930565b005b61024b600480360381019061024691906123ea565b6109f0565b60405161025891906129b2565b60405180910390f35b61027b6004803603810190610276919061223a565b610a93565b005b610285610af3565b6040516102929190612c0a565b60405180910390f35b6102b560048036038101906102b0919061223a565b610b17565b005b6102bf610b37565b6040516102cc9190612c25565b60405180910390f35b6102dd610b5b565b6040516102ea919061290e565b60405180910390f35b61030d600480360381019061030891906123ea565b610b86565b60405161031a919061287e565b60405180910390f35b61032b610c38565b6040516103389190612bd4565b60405180910390f35b61035b600480360381019061035691906121cd565b610c3d565b6040516103689190612bef565b60405180910390f35b610379610cf5565b6040516103869190612c0a565b60405180910390f35b610397610cfa565b6040516103a49190612944565b60405180910390f35b6103b5610d1e565b6040516103c291906129b2565b60405180910390f35b6103e560048036038101906103e09190612310565b610db0565b005b61040160048036038101906103fc91906123ea565b610dc6565b60405161040e919061287e565b60405180910390f35b610431600480360381019061042c919061228d565b610df9565b005b61044d600480360381019061044891906123ea565b610e5b565b60405161045a91906129b2565b60405180910390f35b61046b610fad565b6040516104789190612bef565b60405180910390f35b61049b600480360381019061049691906121fa565b610fb2565b6040516104a89190612929565b60405180910390f35b60007f80ac58cd000000000000000000000000000000000000000000000000000000007bffffffffffffffffffffffffffffffffffffffffffffffffffffffff1916827bffffffffffffffffffffffffffffffffffffffffffffffffffffffff1916148061057c57507f5b5e139f000000000000000000000000000000000000000000000000000000007bffffffffffffffffffffffffffffffffffffffffffffffffffffffff1916827bffffffffffffffffffffffffffffffffffffffffffffffffffffffff1916145b8061058c575061058b82611046565b5b9050919050565b6060600080546105a290612edf565b80601f01602080910402602001604051908101604052809291908181526020018280546105ce90612edf565b801561061b5780601f106105f05761010080835404028352916020019161061b565b820191906000526020600020905b8154815290600101906020018083116105fe57829003601f168201915b5050505050905090565b6000610630826110b0565b61066f576040517f08c379a000000000000000000000000000000000000000000000000000000000815260040161066690612b54565b60405180910390fd5b6004600083815260200190815260200160002060009054906101000a900473ffffffffffffffffffffffffffffffffffffffff169050919050565b60006106b582610b86565b90508073ffffffffffffffffffffffffffffffffffffffff168373ffffffffffffffffffffffffffffffffffffffff161415610726576040517f08c379a000000000000000000000000000000000000000000000000000000000815260040161071d90612b94565b60405180910390fd5b8073ffffffffffffffffffffffffffffffffffffffff1661074561111c565b73ffffffffffffffffffffffffffffffffffffffff16148061077457506107738161076e61111c565b610fb2565b5b6107b3576040517f08c379a00000000000000000000000000000000000000000000000000000000081526004016107aa90612a94565b60405180910390fd5b6107bd8383611124565b505050565b60007f000000000000000000000000000000000000000000000000000000000000000073ffffffffffffffffffffffffffffffffffffffff16635d3b1d307f00000000000000000000000000000000000000000000000000000000000000007f000000000000000000000000000000000000000000000000000000000000000060037f000000000000000000000000000000000000000000000000000000000000000060016040518663ffffffff1660e01b815260040161088795949392919061295f565b602060405180830381600087803b1580156108a157600080fd5b505af11580156108b5573d6000803e3d6000fd5b505050506040513d601f19601f820116820180604052508101906108d99190612417565b9050336007600083815260200190815260200160002060006101000a81548173ffffffffffffffffffffffffffffffffffffffff021916908373ffffffffffffffffffffffffffffffffffffffff16021790555090565b7f000000000000000000000000000000000000000000000000000000000000000073ffffffffffffffffffffffffffffffffffffffff163373ffffffffffffffffffffffffffffffffffffffff16146109e257337f00000000000000000000000000000000000000000000000000000000000000006040517f1cf993f40000000000000000000000000000000000000000000000000000000081526004016109d9929190612899565b60405180910390fd5b6109ec82826111dd565b5050565b60088160038110610a0057600080fd5b016000915090508054610a1290612edf565b80601f0160208091040260200160405190810160405280929190818152602001828054610a3e90612edf565b8015610a8b5780601f10610a6057610100808354040283529160200191610a8b565b820191906000526020600020905b815481529060010190602001808311610a6e57829003601f168201915b505050505081565b610aa4610a9e61111c565b82611323565b610ae3576040517f08c379a0000000000000000000000000000000000000000000000000000000008152600401610ada90612bb4565b60405180910390fd5b610aee838383611401565b505050565b7f000000000000000000000000000000000000000000000000000000000000000081565b610b3283838360405180602001604052806000815250610df9565b505050565b7f000000000000000000000000000000000000000000000000000000000000000081565b610b63611f7c565b6040518060600160405280600a8152602001601e81526020016064815250905090565b6000806002600084815260200190815260200160002060009054906101000a900473ffffffffffffffffffffffffffffffffffffffff169050600073ffffffffffffffffffffffffffffffffffffffff168173ffffffffffffffffffffffffffffffffffffffff161415610c2f576040517f08c379a0000000000000000000000000000000000000000000000000000000008152600401610c2690612ad4565b60405180910390fd5b80915050919050565b600381565b60008073ffffffffffffffffffffffffffffffffffffffff168273ffffffffffffffffffffffffffffffffffffffff161415610cae576040517f08c379a0000000000000000000000000000000000000000000000000000000008152600401610ca590612ab4565b60405180910390fd5b600360008373ffffffffffffffffffffffffffffffffffffffff1673ffffffffffffffffffffffffffffffffffffffff168152602001908152602001600020549050919050565b600181565b7f000000000000000000000000000000000000000000000000000000000000000081565b606060018054610d2d90612edf565b80601f0160208091040260200160405190810160405280929190818152602001828054610d5990612edf565b8015610da65780601f10610d7b57610100808354040283529160200191610da6565b820191906000526020600020905b815481529060010190602001808311610d8957829003601f168201915b5050505050905090565b610dc2610dbb61111c565b8383611668565b5050565b60076020528060005260406000206000915054906101000a900473ffffffffffffffffffffffffffffffffffffffff1681565b610e0a610e0461111c565b83611323565b610e49576040517f08c379a0000000000000000000000000000000000000000000000000000000008152600401610e4090612bb4565b60405180910390fd5b610e55848484846117d5565b50505050565b6060610e66826110b0565b610ea5576040517f08c379a0000000000000000000000000000000000000000000000000000000008152600401610e9c90612b34565b60405180910390fd5b6000600660008481526020019081526020016000208054610ec590612edf565b80601f0160208091040260200160405190810160405280929190818152602001828054610ef190612edf565b8015610f3e5780601f10610f1357610100808354040283529160200191610f3e565b820191906000526020600020905b815481529060010190602001808311610f2157829003601f168201915b505050505090506000610f4f611831565b9050600081511415610f65578192505050610fa8565b600082511115610f9a578082604051602001610f8292919061285a565b60405160208183030381529060405292505050610fa8565b610fa384611848565b925050505b919050565b606481565b6000600560008473ffffffffffffffffffffffffffffffffffffffff1673ffffffffffffffffffffffffffffffffffffffff16815260200190815260200160002060008373ffffffffffffffffffffffffffffffffffffffff1673ffffffffffffffffffffffffffffffffffffffff16815260200190815260200160002060009054906101000a900460ff16905092915050565b60007f01ffc9a7000000000000000000000000000000000000000000000000000000007bffffffffffffffffffffffffffffffffffffffffffffffffffffffff1916827bffffffffffffffffffffffffffffffffffffffffffffffffffffffff1916149050919050565b60008073ffffffffffffffffffffffffffffffffffffffff166002600084815260200190815260200160002060009054906101000a900473ffffffffffffffffffffffffffffffffffffffff1673ffffffffffffffffffffffffffffffffffffffff1614159050919050565b600033905090565b816004600083815260200190815260200160002060006101000a81548173ffffffffffffffffffffffffffffffffffffffff021916908373ffffffffffffffffffffffffffffffffffffffff160217905550808273ffffffffffffffffffffffffffffffffffffffff1661119783610b86565b73ffffffffffffffffffffffffffffffffffffffff167f8c5be1e5ebec7d5bd14f71427d1e84f3dd0314c0f7b2291e5b200ac8c7c3b92560405160405180910390a45050565b60006007600084815260200190815260200160002060009054906101000a900473ffffffffffffffffffffffffffffffffffffffff1690506000600b5490506001600b5461122b9190612d32565b600b81905550600060648460008151811061124957611248613049565b5b602002602001015161125b9190612f8b565b90506000611268826118ef565b90506112748484611990565b61131b836008836003811061128c5761128b613049565b5b01805461129890612edf565b80601f01602080910402602001604051908101604052809291908181526020018280546112c490612edf565b80156113115780601f106112e657610100808354040283529160200191611311565b820191906000526020600020905b8154815290600101906020018083116112f457829003601f168201915b50505050506119ae565b505050505050565b600061132e826110b0565b61136d576040517f08c379a000000000000000000000000000000000000000000000000000000000815260040161136490612a74565b60405180910390fd5b600061137883610b86565b90508073ffffffffffffffffffffffffffffffffffffffff168473ffffffffffffffffffffffffffffffffffffffff1614806113ba57506113b98185610fb2565b5b806113f857508373ffffffffffffffffffffffffffffffffffffffff166113e084610625565b73ffffffffffffffffffffffffffffffffffffffff16145b91505092915050565b8273ffffffffffffffffffffffffffffffffffffffff1661142182610b86565b73ffffffffffffffffffffffffffffffffffffffff1614611477576040517f08c379a000000000000000000000000000000000000000000000000000000000815260040161146e906129f4565b60405180910390fd5b600073ffffffffffffffffffffffffffffffffffffffff168273ffffffffffffffffffffffffffffffffffffffff1614156114e7576040517f08c379a00000000000000000000000000000000000000000000000000000000081526004016114de90612a34565b60405180910390fd5b6114f2838383611a22565b6114fd600082611124565b6001600360008573ffffffffffffffffffffffffffffffffffffffff1673ffffffffffffffffffffffffffffffffffffffff168152602001908152602001600020600082825461154d9190612db9565b925050819055506001600360008473ffffffffffffffffffffffffffffffffffffffff1673ffffffffffffffffffffffffffffffffffffffff16815260200190815260200160002060008282546115a49190612d32565b92505081905550816002600083815260200190815260200160002060006101000a81548173ffffffffffffffffffffffffffffffffffffffff021916908373ffffffffffffffffffffffffffffffffffffffff160217905550808273ffffffffffffffffffffffffffffffffffffffff168473ffffffffffffffffffffffffffffffffffffffff167fddf252ad1be2c89b69c2b068fc378daa952ba7f163c4a11628f55a4df523b3ef60405160405180910390a4611663838383611a27565b505050565b8173ffffffffffffffffffffffffffffffffffffffff168373ffffffffffffffffffffffffffffffffffffffff1614156116d7576040517f08c379a00000000000000000000000000000000000000000000000000000000081526004016116ce90612a54565b60405180910390fd5b80600560008573ffffffffffffffffffffffffffffffffffffffff1673ffffffffffffffffffffffffffffffffffffffff16815260200190815260200160002060008473ffffffffffffffffffffffffffffffffffffffff1673ffffffffffffffffffffffffffffffffffffffff16815260200190815260200160002060006101000a81548160ff0219169083151502179055508173ffffffffffffffffffffffffffffffffffffffff168373ffffffffffffffffffffffffffffffffffffffff167f17307eab39ab6107e8899845ad3d59bd9653f200f220920489ca2b5937696c31836040516117c89190612929565b60405180910390a3505050565b6117e0848484611401565b6117ec84848484611a2c565b61182b576040517f08c379a0000000000000000000000000000000000000000000000000000000008152600401611822906129d4565b60405180910390fd5b50505050565b606060405180602001604052806000815250905090565b6060611853826110b0565b611892576040517f08c379a000000000000000000000000000000000000000000000000000000000815260040161188990612b74565b60405180910390fd5b600061189c611831565b905060008151116118bc57604051806020016040528060008152506118e7565b806118c684611bc3565b6040516020016118d792919061285a565b6040516020818303038152906040525b915050919050565b600080600090506000611900610b5b565b905060005b60038110156119875782851015801561193f575081816003811061192c5761192b613049565b5b60200201518361193c9190612d32565b85105b1561194f5780935050505061198b565b81816003811061196257611961613049565b5b6020020151836119729190612d32565b9250808061197f90612f42565b915050611905565b5050505b919050565b6119aa828260405180602001604052806000815250611d24565b5050565b6119b7826110b0565b6119f6576040517f08c379a00000000000000000000000000000000000000000000000000000000081526004016119ed90612af4565b60405180910390fd5b80600660008481526020019081526020016000209080519060200190611a1d929190611f9e565b505050565b505050565b505050565b6000611a4d8473ffffffffffffffffffffffffffffffffffffffff16611d7f565b15611bb6578373ffffffffffffffffffffffffffffffffffffffff1663150b7a02611a7661111c565b8786866040518563ffffffff1660e01b8152600401611a9894939291906128c2565b602060405180830381600087803b158015611ab257600080fd5b505af1925050508015611ae357506040513d601f19601f82011682018060405250810190611ae091906123bd565b60015b611b66573d8060008114611b13576040519150601f19603f3d011682016040523d82523d6000602084013e611b18565b606091505b50600081511415611b5e576040517f08c379a0000000000000000000000000000000000000000000000000000000008152600401611b55906129d4565b60405180910390fd5b805181602001fd5b63150b7a0260e01b7bffffffffffffffffffffffffffffffffffffffffffffffffffffffff1916817bffffffffffffffffffffffffffffffffffffffffffffffffffffffff191614915050611bbb565b600190505b949350505050565b60606000821415611c0b576040518060400160405280600181526020017f30000000000000000000000000000000000000000000000000000000000000008152509050611d1f565b600082905060005b60008214611c3d578080611c2690612f42565b915050600a82611c369190612d88565b9150611c13565b60008167ffffffffffffffff811115611c5957611c58613078565b5b6040519080825280601f01601f191660200182016040528015611c8b5781602001600182028036833780820191505090505b5090505b60008514611d1857600182611ca49190612db9565b9150600a85611cb39190612f8b565b6030611cbf9190612d32565b60f81b818381518110611cd557611cd4613049565b5b60200101907effffffffffffffffffffffffffffffffffffffffffffffffffffffffffffff1916908160001a905350600a85611d119190612d88565b9450611c8f565b8093505050505b919050565b611d2e8383611da2565b611d3b6000848484611a2c565b611d7a576040517f08c379a0000000000000000000000000000000000000000000000000000000008152600401611d71906129d4565b60405180910390fd5b505050565b6000808273ffffffffffffffffffffffffffffffffffffffff163b119050919050565b600073ffffffffffffffffffffffffffffffffffffffff168273ffffffffffffffffffffffffffffffffffffffff161415611e12576040517f08c379a0000000000000000000000000000000000000000000000000000000008152600401611e0990612b14565b60405180910390fd5b611e1b816110b0565b15611e5b576040517f08c379a0000000000000000000000000000000000000000000000000000000008152600401611e5290612a14565b60405180910390fd5b611e6760008383611a22565b6001600360008473ffffffffffffffffffffffffffffffffffffffff1673ffffffffffffffffffffffffffffffffffffffff1681526020019081526020016000206000828254611eb79190612d32565b92505081905550816002600083815260200190815260200160002060006101000a81548173ffffffffffffffffffffffffffffffffffffffff021916908373ffffffffffffffffffffffffffffffffffffffff160217905550808273ffffffffffffffffffffffffffffffffffffffff16600073ffffffffffffffffffffffffffffffffffffffff167fddf252ad1be2c89b69c2b068fc378daa952ba7f163c4a11628f55a4df523b3ef60405160405180910390a4611f7860008383611a27565b5050565b6040518060600160405280600390602082028036833780820191505090505090565b828054611faa90612edf565b90600052602060002090601f016020900481019282611fcc5760008555612013565b82601f10611fe557805160ff1916838001178555612013565b82800160010185558215612013579182015b82811115612012578251825591602001919060010190611ff7565b5b5090506120209190612024565b5090565b5b8082111561203d576000816000905550600101612025565b5090565b600061205461204f84612c65565b612c40565b90508083825260208201905082856020860282011115612077576120766130ac565b5b60005b858110156120a7578161208d88826121a3565b84526020840193506020830192505060018101905061207a565b5050509392505050565b60006120c46120bf84612c91565b612c40565b9050828152602081018484840111156120e0576120df6130b1565b5b6120eb848285612e9d565b509392505050565b6000813590506121028161354f565b92915050565b600082601f83011261211d5761211c6130a7565b5b813561212d848260208601612041565b91505092915050565b60008135905061214581613566565b92915050565b60008135905061215a8161357d565b92915050565b60008151905061216f8161357d565b92915050565b600082601f83011261218a576121896130a7565b5b813561219a8482602086016120b1565b91505092915050565b6000813590506121b281613594565b92915050565b6000815190506121c781613594565b92915050565b6000602082840312156121e3576121e26130bb565b5b60006121f1848285016120f3565b91505092915050565b60008060408385031215612211576122106130bb565b5b600061221f858286016120f3565b9250506020612230858286016120f3565b9150509250929050565b600080600060608486031215612253576122526130bb565b5b6000612261868287016120f3565b9350506020612272868287016120f3565b9250506040612283868287016121a3565b9150509250925092565b600080600080608085870312156122a7576122a66130bb565b5b60006122b5878288016120f3565b94505060206122c6878288016120f3565b93505060406122d7878288016121a3565b925050606085013567ffffffffffffffff8111156122f8576122f76130b6565b5b61230487828801612175565b91505092959194509250565b60008060408385031215612327576123266130bb565b5b6000612335858286016120f3565b925050602061234685828601612136565b9150509250929050565b60008060408385031215612367576123666130bb565b5b6000612375858286016120f3565b9250506020612386858286016121a3565b9150509250929050565b6000602082840312156123a6576123a56130bb565b5b60006123b48482850161214b565b91505092915050565b6000602082840312156123d3576123d26130bb565b5b60006123e184828501612160565b91505092915050565b600060208284031215612400576123ff6130bb565b5b600061240e848285016121a3565b91505092915050565b60006020828403121561242d5761242c6130bb565b5b600061243b848285016121b8565b91505092915050565b6000806040838503121561245b5761245a6130bb565b5b6000612469858286016121a3565b925050602083013567ffffffffffffffff81111561248a576124896130b6565b5b61249685828601612108565b9150509250929050565b60006124ac838361281e565b60208301905092915050565b6124c181612ded565b82525050565b6124d081612ccc565b6124da8184612cfa565b92506124e582612cc2565b8060005b838110156125165781516124fd87826124a0565b965061250883612ced565b9250506001810190506124e9565b505050505050565b61252781612dff565b82525050565b61253681612e0b565b82525050565b600061254782612cd7565b6125518185612d05565b9350612561818560208601612eac565b61256a816130c0565b840191505092915050565b600061258082612ce2565b61258a8185612d16565b935061259a818560208601612eac565b6125a3816130c0565b840191505092915050565b60006125b982612ce2565b6125c38185612d27565b93506125d3818560208601612eac565b80840191505092915050565b60006125ec603283612d16565b91506125f7826130d1565b604082019050919050565b600061260f602583612d16565b915061261a82613120565b604082019050919050565b6000612632601c83612d16565b915061263d8261316f565b602082019050919050565b6000612655602483612d16565b915061266082613198565b604082019050919050565b6000612678601983612d16565b9150612683826131e7565b602082019050919050565b600061269b602c83612d16565b91506126a682613210565b604082019050919050565b60006126be603883612d16565b91506126c98261325f565b604082019050919050565b60006126e1602a83612d16565b91506126ec826132ae565b604082019050919050565b6000612704602983612d16565b915061270f826132fd565b604082019050919050565b6000612727602e83612d16565b91506127328261334c565b604082019050919050565b600061274a602083612d16565b91506127558261339b565b602082019050919050565b600061276d603183612d16565b9150612778826133c4565b604082019050919050565b6000612790602c83612d16565b915061279b82613413565b604082019050919050565b60006127b3602f83612d16565b91506127be82613462565b604082019050919050565b60006127d6602183612d16565b91506127e1826134b1565b604082019050919050565b60006127f9603183612d16565b915061280482613500565b604082019050919050565b61281881612e41565b82525050565b61282781612e6f565b82525050565b61283681612e6f565b82525050565b61284581612e79565b82525050565b61285481612e89565b82525050565b600061286682856125ae565b915061287282846125ae565b91508190509392505050565b600060208201905061289360008301846124b8565b92915050565b60006040820190506128ae60008301856124b8565b6128bb60208301846124b8565b9392505050565b60006080820190506128d760008301876124b8565b6128e460208301866124b8565b6128f1604083018561282d565b8181036060830152612903818461253c565b905095945050505050565b600060608201905061292360008301846124c7565b92915050565b600060208201905061293e600083018461251e565b92915050565b6000602082019050612959600083018461252d565b92915050565b600060a082019050612974600083018861252d565b612981602083018761284b565b61298e604083018661280f565b61299b606083018561283c565b6129a8608083018461283c565b9695505050505050565b600060208201905081810360008301526129cc8184612575565b905092915050565b600060208201905081810360008301526129ed816125df565b9050919050565b60006020820190508181036000830152612a0d81612602565b9050919050565b60006020820190508181036000830152612a2d81612625565b9050919050565b60006020820190508181036000830152612a4d81612648565b9050919050565b60006020820190508181036000830152612a6d8161266b565b9050919050565b60006020820190508181036000830152612a8d8161268e565b9050919050565b60006020820190508181036000830152612aad816126b1565b9050919050565b60006020820190508181036000830152612acd816126d4565b9050919050565b60006020820190508181036000830152612aed816126f7565b9050919050565b60006020820190508181036000830152612b0d8161271a565b9050919050565b60006020820190508181036000830152612b2d8161273d565b9050919050565b60006020820190508181036000830152612b4d81612760565b9050919050565b60006020820190508181036000830152612b6d81612783565b9050919050565b60006020820190508181036000830152612b8d816127a6565b9050919050565b60006020820190508181036000830152612bad816127c9565b9050919050565b60006020820190508181036000830152612bcd816127ec565b9050919050565b6000602082019050612be9600083018461280f565b92915050565b6000602082019050612c04600083018461282d565b92915050565b6000602082019050612c1f600083018461283c565b92915050565b6000602082019050612c3a600083018461284b565b92915050565b6000612c4a612c5b565b9050612c568282612f11565b919050565b6000604051905090565b600067ffffffffffffffff821115612c8057612c7f613078565b5b602082029050602081019050919050565b600067ffffffffffffffff821115612cac57612cab613078565b5b612cb5826130c0565b9050602081019050919050565b6000819050919050565b600060039050919050565b600081519050919050565b600081519050919050565b6000602082019050919050565b600081905092915050565b600082825260208201905092915050565b600082825260208201905092915050565b600081905092915050565b6000612d3d82612e6f565b9150612d4883612e6f565b9250827fffffffffffffffffffffffffffffffffffffffffffffffffffffffffffffffff03821115612d7d57612d7c612fbc565b5b828201905092915050565b6000612d9382612e6f565b9150612d9e83612e6f565b925082612dae57612dad612feb565b5b828204905092915050565b6000612dc482612e6f565b9150612dcf83612e6f565b925082821015612de257612de1612fbc565b5b828203905092915050565b6000612df882612e4f565b9050919050565b60008115159050919050565b6000819050919050565b60007fffffffff0000000000000000000000000000000000000000000000000000000082169050919050565b600061ffff82169050919050565b600073ffffffffffffffffffffffffffffffffffffffff82169050919050565b6000819050919050565b600063ffffffff82169050919050565b600067ffffffffffffffff82169050919050565b82818337600083830152505050565b60005b83811015612eca578082015181840152602081019050612eaf565b83811115612ed9576000848401525b50505050565b60006002820490506001821680612ef757607f821691505b60208210811415612f0b57612f0a61301a565b5b50919050565b612f1a826130c0565b810181811067ffffffffffffffff82111715612f3957612f38613078565b5b80604052505050565b6000612f4d82612e6f565b91507fffffffffffffffffffffffffffffffffffffffffffffffffffffffffffffffff821415612f8057612f7f612fbc565b5b600182019050919050565b6000612f9682612e6f565b9150612fa183612e6f565b925082612fb157612fb0612feb565b5b828206905092915050565b7f4e487b7100000000000000000000000000000000000000000000000000000000600052601160045260246000fd5b7f4e487b7100000000000000000000000000000000000000000000000000000000600052601260045260246000fd5b7f4e487b7100000000000000000000000000000000000000000000000000000000600052602260045260246000fd5b7f4e487b7100000000000000000000000000000000000000000000000000000000600052603260045260246000fd5b7f4e487b7100000000000000000000000000000000000000000000000000000000600052604160045260246000fd5b600080fd5b600080fd5b600080fd5b600080fd5b600080fd5b6000601f19601f8301169050919050565b7f4552433732313a207472616e7366657220746f206e6f6e20455243373231526560008201527f63656976657220696d706c656d656e7465720000000000000000000000000000602082015250565b7f4552433732313a207472616e736665722066726f6d20696e636f72726563742060008201527f6f776e6572000000000000000000000000000000000000000000000000000000602082015250565b7f4552433732313a20746f6b656e20616c7265616479206d696e74656400000000600082015250565b7f4552433732313a207472616e7366657220746f20746865207a65726f2061646460008201527f7265737300000000000000000000000000000000000000000000000000000000602082015250565b7f4552433732313a20617070726f766520746f2063616c6c657200000000000000600082015250565b7f4552433732313a206f70657261746f7220717565727920666f72206e6f6e657860008201527f697374656e7420746f6b656e0000000000000000000000000000000000000000602082015250565b7f4552433732313a20617070726f76652063616c6c6572206973206e6f74206f7760008201527f6e6572206e6f7220617070726f76656420666f7220616c6c0000000000000000602082015250565b7f4552433732313a2062616c616e636520717565727920666f7220746865207a6560008201527f726f206164647265737300000000000000000000000000000000000000000000602082015250565b7f4552433732313a206f776e657220717565727920666f72206e6f6e657869737460008201527f656e7420746f6b656e0000000000000000000000000000000000000000000000602082015250565b7f45524337323155524953746f726167653a2055524920736574206f66206e6f6e60008201527f6578697374656e7420746f6b656e000000000000000000000000000000000000602082015250565b7f4552433732313a206d696e7420746f20746865207a65726f2061646472657373600082015250565b7f45524337323155524953746f726167653a2055524920717565727920666f722060008201527f6e6f6e6578697374656e7420746f6b656e000000000000000000000000000000602082015250565b7f4552433732313a20617070726f76656420717565727920666f72206e6f6e657860008201527f697374656e7420746f6b656e0000000000000000000000000000000000000000602082015250565b7f4552433732314d657461646174613a2055524920717565727920666f72206e6f60008201527f6e6578697374656e7420746f6b656e0000000000000000000000000000000000602082015250565b7f4552433732313a20617070726f76616c20746f2063757272656e74206f776e6560008201527f7200000000000000000000000000000000000000000000000000000000000000602082015250565b7f4552433732313a207472616e736665722063616c6c6572206973206e6f74206f60008201527f776e6572206e6f7220617070726f766564000000000000000000000000000000602082015250565b61355881612ded565b811461356357600080fd5b50565b61356f81612dff565b811461357a57600080fd5b50565b61358681612e15565b811461359157600080fd5b50565b61359d81612e6f565b81146135a857600080fd5b5056fea2646970667358221220638950821e977b239744982d306aa64657c5804492bf26fefe8011e7f398cb6364736f6c63430008070033",
  "linkReferences": {},
  "deployedLinkReferences": {}
}